{
  "_format": "hh-sol-artifact-1",
  "contractName": "FFH",
  "sourceName": "contracts/FFH.sol",
  "abi": [
    {
      "inputs": [],
      "stateMutability": "nonpayable",
      "type": "constructor"
    },
    {
      "anonymous": false,
      "inputs": [
        {
          "indexed": true,
          "internalType": "address",
          "name": "refugee",
          "type": "address"
        },
        {
          "indexed": false,
          "internalType": "uint256",
          "name": "fineAmount",
          "type": "uint256"
        }
      ],
      "name": "LoanDefaulted",
      "type": "event"
    },
    {
      "anonymous": false,
      "inputs": [
        {
          "indexed": true,
          "internalType": "address",
          "name": "refugee",
          "type": "address"
        },
        {
          "indexed": false,
          "internalType": "uint256",
          "name": "amount",
          "type": "uint256"
        }
      ],
      "name": "LoanRejected",
      "type": "event"
    },
    {
      "anonymous": false,
      "inputs": [
        {
          "indexed": true,
          "internalType": "address",
          "name": "refugee",
          "type": "address"
        },
        {
          "indexed": false,
          "internalType": "uint256",
          "name": "amount",
          "type": "uint256"
        }
      ],
      "name": "LoanRepaid",
      "type": "event"
    },
    {
      "anonymous": false,
      "inputs": [
        {
          "indexed": true,
          "internalType": "address",
          "name": "refugee",
          "type": "address"
        },
        {
          "indexed": false,
          "internalType": "uint256",
          "name": "amount",
          "type": "uint256"
        },
        {
          "indexed": false,
          "internalType": "enum FFH.LoanRepaymentScheme",
          "name": "repaymentScheme",
          "type": "uint8"
        }
      ],
      "name": "LoanTaken",
      "type": "event"
    },
    {
      "anonymous": false,
      "inputs": [
        {
          "indexed": true,
          "internalType": "address",
          "name": "refugee",
          "type": "address"
        },
        {
          "indexed": false,
          "internalType": "uint256",
          "name": "loanAmount",
          "type": "uint256"
        },
        {
          "indexed": false,
          "internalType": "enum FFH.LoanRepaymentScheme",
          "name": "repaymentScheme",
          "type": "uint8"
        }
      ],
      "name": "LoanVerified",
      "type": "event"
    },
    {
      "anonymous": false,
      "inputs": [
        {
          "indexed": true,
          "internalType": "address",
          "name": "refugee",
          "type": "address"
        }
      ],
      "name": "RefugeeRegistered",
      "type": "event"
    },
    {
      "anonymous": false,
      "inputs": [
        {
          "indexed": true,
          "internalType": "address",
          "name": "refugee",
          "type": "address"
        }
      ],
      "name": "RefugeeRejected",
      "type": "event"
    },
    {
      "anonymous": false,
      "inputs": [
        {
          "indexed": true,
          "internalType": "address",
          "name": "refugee",
          "type": "address"
        },
        {
          "indexed": false,
          "internalType": "uint256",
          "name": "amountReceived",
          "type": "uint256"
        }
      ],
      "name": "RefugeeVerified",
      "type": "event"
    },
    {
      "anonymous": false,
      "inputs": [
        {
          "indexed": true,
          "internalType": "address",
          "name": "refugee",
          "type": "address"
        },
        {
          "indexed": false,
          "internalType": "string",
          "name": "message",
          "type": "string"
        }
      ],
      "name": "ReminderSent",
      "type": "event"
    },
    {
      "inputs": [
        {
          "internalType": "address",
          "name": "_refugeeAddress",
          "type": "address"
        }
      ],
      "name": "approveLoan",
      "outputs": [],
      "stateMutability": "payable",
      "type": "function"
    },
    {
      "inputs": [],
      "name": "checkActualBalance",
      "outputs": [
        {
          "internalType": "uint256",
          "name": "",
          "type": "uint256"
        }
      ],
      "stateMutability": "view",
      "type": "function"
    },
    {
      "inputs": [],
      "name": "checkBalance",
      "outputs": [
        {
          "internalType": "uint256",
          "name": "",
          "type": "uint256"
        }
      ],
      "stateMutability": "view",
      "type": "function"
    },
    {
      "inputs": [],
      "name": "defaulterThreshold",
      "outputs": [
        {
          "internalType": "uint256",
          "name": "",
          "type": "uint256"
        }
      ],
      "stateMutability": "view",
      "type": "function"
    },
    {
      "inputs": [
        {
          "internalType": "address",
          "name": "",
          "type": "address"
        }
      ],
      "name": "defaulters",
      "outputs": [
        {
          "internalType": "bool",
          "name": "",
          "type": "bool"
        }
      ],
      "stateMutability": "view",
      "type": "function"
    },
    {
      "inputs": [],
      "name": "finePerDay",
      "outputs": [
        {
          "internalType": "uint256",
          "name": "",
          "type": "uint256"
        }
      ],
      "stateMutability": "view",
      "type": "function"
    },
    {
      "inputs": [],
      "name": "getAllNonVerifiedLoans",
      "outputs": [
        {
          "components": [
            {
              "internalType": "address",
              "name": "accountAddress",
              "type": "address"
            },
            {
              "internalType": "string",
              "name": "name",
              "type": "string"
            },
            {
              "internalType": "string",
              "name": "phoneNumber",
              "type": "string"
            },
            {
              "internalType": "string",
              "name": "nationality",
              "type": "string"
            },
            {
              "internalType": "string",
              "name": "currentAddress",
              "type": "string"
            },
            {
              "internalType": "uint256",
              "name": "unhrcID",
              "type": "uint256"
            },
            {
              "internalType": "uint256",
              "name": "loanInstallmentAmount",
              "type": "uint256"
            },
            {
              "internalType": "uint256",
              "name": "lastRepaymentDate",
              "type": "uint256"
            },
            {
              "internalType": "enum FFH.LoanRepaymentScheme",
              "name": "repaymentScheme",
              "type": "uint8"
            },
            {
              "components": [
                {
                  "internalType": "uint256",
                  "name": "amount",
                  "type": "uint256"
                },
                {
                  "internalType": "uint256",
                  "name": "repaymentAmount",
                  "type": "uint256"
                },
                {
                  "internalType": "uint256",
                  "name": "repaymentDate",
                  "type": "uint256"
                },
                {
                  "internalType": "bool",
                  "name": "repaid",
                  "type": "bool"
                }
              ],
              "internalType": "struct FFH.Loan",
              "name": "loan",
              "type": "tuple"
            }
          ],
          "internalType": "struct FFH.Refugee[]",
          "name": "",
          "type": "tuple[]"
        }
      ],
      "stateMutability": "view",
      "type": "function"
    },
    {
      "inputs": [],
      "name": "getAllNonVerifiedRefugees",
      "outputs": [
        {
          "components": [
            {
              "internalType": "address",
              "name": "accountAddress",
              "type": "address"
            },
            {
              "internalType": "string",
              "name": "name",
              "type": "string"
            },
            {
              "internalType": "string",
              "name": "phoneNumber",
              "type": "string"
            },
            {
              "internalType": "string",
              "name": "nationality",
              "type": "string"
            },
            {
              "internalType": "string",
              "name": "currentAddress",
              "type": "string"
            },
            {
              "internalType": "uint256",
              "name": "unhrcID",
              "type": "uint256"
            },
            {
              "internalType": "uint256",
              "name": "loanInstallmentAmount",
              "type": "uint256"
            },
            {
              "internalType": "uint256",
              "name": "lastRepaymentDate",
              "type": "uint256"
            },
            {
              "internalType": "enum FFH.LoanRepaymentScheme",
              "name": "repaymentScheme",
              "type": "uint8"
            },
            {
              "components": [
                {
                  "internalType": "uint256",
                  "name": "amount",
                  "type": "uint256"
                },
                {
                  "internalType": "uint256",
                  "name": "repaymentAmount",
                  "type": "uint256"
                },
                {
                  "internalType": "uint256",
                  "name": "repaymentDate",
                  "type": "uint256"
                },
                {
                  "internalType": "bool",
                  "name": "repaid",
                  "type": "bool"
                }
              ],
              "internalType": "struct FFH.Loan",
              "name": "loan",
              "type": "tuple"
            }
          ],
          "internalType": "struct FFH.Refugee[]",
          "name": "",
          "type": "tuple[]"
        }
      ],
      "stateMutability": "view",
      "type": "function"
    },
    {
      "inputs": [],
      "name": "getAllVerifiedLoans",
      "outputs": [
        {
          "components": [
            {
              "internalType": "address",
              "name": "refugeeAddress",
              "type": "address"
            },
            {
              "internalType": "uint256",
              "name": "loanAmount",
              "type": "uint256"
            },
            {
              "internalType": "enum FFH.LoanRepaymentScheme",
              "name": "repaymentScheme",
              "type": "uint8"
            }
          ],
          "internalType": "struct FFH.VerifiedLoan[]",
          "name": "",
          "type": "tuple[]"
        }
      ],
      "stateMutability": "view",
      "type": "function"
    },
    {
      "inputs": [],
      "name": "getAllVerifiedRefugees",
      "outputs": [
        {
          "components": [
            {
              "internalType": "address",
              "name": "accountAddress",
              "type": "address"
            },
            {
              "internalType": "string",
              "name": "name",
              "type": "string"
            },
            {
              "internalType": "string",
              "name": "phoneNumber",
              "type": "string"
            },
            {
              "internalType": "string",
              "name": "nationality",
              "type": "string"
            },
            {
              "internalType": "string",
              "name": "currentAddress",
              "type": "string"
            },
            {
              "internalType": "uint256",
              "name": "unhrcID",
              "type": "uint256"
            },
            {
              "internalType": "uint256",
              "name": "loanInstallmentAmount",
              "type": "uint256"
            },
            {
              "internalType": "uint256",
              "name": "lastRepaymentDate",
              "type": "uint256"
            },
            {
              "internalType": "enum FFH.LoanRepaymentScheme",
              "name": "repaymentScheme",
              "type": "uint8"
            },
            {
              "components": [
                {
                  "internalType": "uint256",
                  "name": "amount",
                  "type": "uint256"
                },
                {
                  "internalType": "uint256",
                  "name": "repaymentAmount",
                  "type": "uint256"
                },
                {
                  "internalType": "uint256",
                  "name": "repaymentDate",
                  "type": "uint256"
                },
                {
                  "internalType": "bool",
                  "name": "repaid",
                  "type": "bool"
                }
              ],
              "internalType": "struct FFH.Loan",
              "name": "loan",
              "type": "tuple"
            }
          ],
          "internalType": "struct FFH.Refugee[]",
          "name": "",
          "type": "tuple[]"
        }
      ],
      "stateMutability": "view",
      "type": "function"
    },
    {
      "inputs": [
        {
          "internalType": "address",
          "name": "_refugeeAddress",
          "type": "address"
        }
      ],
      "name": "getNonVerifiedLoan",
      "outputs": [
        {
          "components": [
            {
              "internalType": "address",
              "name": "accountAddress",
              "type": "address"
            },
            {
              "internalType": "string",
              "name": "name",
              "type": "string"
            },
            {
              "internalType": "string",
              "name": "phoneNumber",
              "type": "string"
            },
            {
              "internalType": "string",
              "name": "nationality",
              "type": "string"
            },
            {
              "internalType": "string",
              "name": "currentAddress",
              "type": "string"
            },
            {
              "internalType": "uint256",
              "name": "unhrcID",
              "type": "uint256"
            },
            {
              "internalType": "uint256",
              "name": "loanInstallmentAmount",
              "type": "uint256"
            },
            {
              "internalType": "uint256",
              "name": "lastRepaymentDate",
              "type": "uint256"
            },
            {
              "internalType": "enum FFH.LoanRepaymentScheme",
              "name": "repaymentScheme",
              "type": "uint8"
            },
            {
              "components": [
                {
                  "internalType": "uint256",
                  "name": "amount",
                  "type": "uint256"
                },
                {
                  "internalType": "uint256",
                  "name": "repaymentAmount",
                  "type": "uint256"
                },
                {
                  "internalType": "uint256",
                  "name": "repaymentDate",
                  "type": "uint256"
                },
                {
                  "internalType": "bool",
                  "name": "repaid",
                  "type": "bool"
                }
              ],
              "internalType": "struct FFH.Loan",
              "name": "loan",
              "type": "tuple"
            }
          ],
          "internalType": "struct FFH.Refugee",
          "name": "",
          "type": "tuple"
        }
      ],
      "stateMutability": "view",
      "type": "function"
    },
    {
      "inputs": [
        {
          "internalType": "address",
          "name": "_refugeeAddress",
          "type": "address"
        }
      ],
      "name": "getNonVerifiedLoanAmount",
      "outputs": [
        {
          "internalType": "uint256",
          "name": "",
          "type": "uint256"
        }
      ],
      "stateMutability": "view",
      "type": "function"
    },
    {
      "inputs": [],
      "name": "government",
      "outputs": [
        {
          "internalType": "address payable",
          "name": "",
          "type": "address"
        }
      ],
      "stateMutability": "view",
      "type": "function"
    },
    {
      "inputs": [
        {
          "internalType": "address",
          "name": "_refugeeAddress",
          "type": "address"
        }
      ],
      "name": "isNonVerifiedLoan",
      "outputs": [
        {
          "internalType": "bool",
          "name": "",
          "type": "bool"
        }
      ],
      "stateMutability": "view",
      "type": "function"
    },
    {
      "inputs": [
        {
          "internalType": "address",
          "name": "_refugeeAddress",
          "type": "address"
        }
      ],
      "name": "isNonVerifiedRefugee",
      "outputs": [
        {
          "internalType": "bool",
          "name": "",
          "type": "bool"
        }
      ],
      "stateMutability": "view",
      "type": "function"
    },
    {
      "inputs": [
        {
          "internalType": "address",
          "name": "_refugeeAddress",
          "type": "address"
        }
      ],
      "name": "isVerifiedRefugee",
      "outputs": [
        {
          "internalType": "bool",
          "name": "",
          "type": "bool"
        }
      ],
      "stateMutability": "view",
      "type": "function"
    },
    {
      "inputs": [
        {
          "internalType": "uint256",
          "name": "",
          "type": "uint256"
        }
      ],
      "name": "nonVerifiedRefugees",
      "outputs": [
        {
          "internalType": "address",
          "name": "accountAddress",
          "type": "address"
        },
        {
          "internalType": "string",
          "name": "name",
          "type": "string"
        },
        {
          "internalType": "string",
          "name": "phoneNumber",
          "type": "string"
        },
        {
          "internalType": "string",
          "name": "nationality",
          "type": "string"
        },
        {
          "internalType": "string",
          "name": "currentAddress",
          "type": "string"
        },
        {
          "internalType": "uint256",
          "name": "unhrcID",
          "type": "uint256"
        },
        {
          "internalType": "uint256",
          "name": "loanInstallmentAmount",
          "type": "uint256"
        },
        {
          "internalType": "uint256",
          "name": "lastRepaymentDate",
          "type": "uint256"
        },
        {
          "internalType": "enum FFH.LoanRepaymentScheme",
          "name": "repaymentScheme",
          "type": "uint8"
        },
        {
          "components": [
            {
              "internalType": "uint256",
              "name": "amount",
              "type": "uint256"
            },
            {
              "internalType": "uint256",
              "name": "repaymentAmount",
              "type": "uint256"
            },
            {
              "internalType": "uint256",
              "name": "repaymentDate",
              "type": "uint256"
            },
            {
              "internalType": "bool",
              "name": "repaid",
              "type": "bool"
            }
          ],
          "internalType": "struct FFH.Loan",
          "name": "loan",
          "type": "tuple"
        }
      ],
      "stateMutability": "view",
      "type": "function"
    },
    {
      "inputs": [
        {
          "internalType": "address",
          "name": "",
          "type": "address"
        }
      ],
      "name": "refugeeBalances",
      "outputs": [
        {
          "internalType": "uint256",
          "name": "",
          "type": "uint256"
        }
      ],
      "stateMutability": "view",
      "type": "function"
    },
    {
      "inputs": [
        {
          "internalType": "string",
          "name": "_name",
          "type": "string"
        },
        {
          "internalType": "string",
          "name": "_phoneNumber",
          "type": "string"
        },
        {
          "internalType": "string",
          "name": "_nationality",
          "type": "string"
        },
        {
          "internalType": "string",
          "name": "_currentAddress",
          "type": "string"
        },
        {
          "internalType": "uint256",
          "name": "_unhrcID",
          "type": "uint256"
        }
      ],
      "name": "registerAsRefugee",
      "outputs": [],
      "stateMutability": "payable",
      "type": "function"
    },
    {
      "inputs": [
        {
          "internalType": "address",
          "name": "_refugeeAddress",
          "type": "address"
        }
      ],
      "name": "rejectLoan",
      "outputs": [],
      "stateMutability": "nonpayable",
      "type": "function"
    },
    {
      "inputs": [
        {
          "internalType": "address",
          "name": "_refugeeAddress",
          "type": "address"
        }
      ],
      "name": "rejectRefugee",
      "outputs": [],
      "stateMutability": "nonpayable",
      "type": "function"
    },
    {
      "inputs": [],
      "name": "remindForRepayment",
      "outputs": [],
      "stateMutability": "nonpayable",
      "type": "function"
    },
    {
      "inputs": [
        {
          "internalType": "uint256",
          "name": "_amount",
          "type": "uint256"
        }
      ],
      "name": "repayLoan",
      "outputs": [],
      "stateMutability": "nonpayable",
      "type": "function"
    },
    {
      "inputs": [
        {
          "internalType": "uint256",
          "name": "_amount",
          "type": "uint256"
        },
        {
          "internalType": "enum FFH.LoanRepaymentScheme",
          "name": "_repaymentScheme",
          "type": "uint8"
        }
      ],
      "name": "takeLoan",
      "outputs": [],
      "stateMutability": "nonpayable",
      "type": "function"
    },
    {
      "inputs": [
        {
          "internalType": "uint256",
          "name": "",
          "type": "uint256"
        }
      ],
      "name": "verifiedLoans",
      "outputs": [
        {
          "internalType": "address",
          "name": "refugeeAddress",
          "type": "address"
        },
        {
          "internalType": "uint256",
          "name": "loanAmount",
          "type": "uint256"
        },
        {
          "internalType": "enum FFH.LoanRepaymentScheme",
          "name": "repaymentScheme",
          "type": "uint8"
        }
      ],
      "stateMutability": "view",
      "type": "function"
    },
    {
      "inputs": [
        {
          "internalType": "uint256",
          "name": "",
          "type": "uint256"
        }
      ],
      "name": "verifiedRefugees",
      "outputs": [
        {
          "internalType": "address",
          "name": "accountAddress",
          "type": "address"
        },
        {
          "internalType": "string",
          "name": "name",
          "type": "string"
        },
        {
          "internalType": "string",
          "name": "phoneNumber",
          "type": "string"
        },
        {
          "internalType": "string",
          "name": "nationality",
          "type": "string"
        },
        {
          "internalType": "string",
          "name": "currentAddress",
          "type": "string"
        },
        {
          "internalType": "uint256",
          "name": "unhrcID",
          "type": "uint256"
        },
        {
          "internalType": "uint256",
          "name": "loanInstallmentAmount",
          "type": "uint256"
        },
        {
          "internalType": "uint256",
          "name": "lastRepaymentDate",
          "type": "uint256"
        },
        {
          "internalType": "enum FFH.LoanRepaymentScheme",
          "name": "repaymentScheme",
          "type": "uint8"
        },
        {
          "components": [
            {
              "internalType": "uint256",
              "name": "amount",
              "type": "uint256"
            },
            {
              "internalType": "uint256",
              "name": "repaymentAmount",
              "type": "uint256"
            },
            {
              "internalType": "uint256",
              "name": "repaymentDate",
              "type": "uint256"
            },
            {
              "internalType": "bool",
              "name": "repaid",
              "type": "bool"
            }
          ],
          "internalType": "struct FFH.Loan",
          "name": "loan",
          "type": "tuple"
        }
      ],
      "stateMutability": "view",
      "type": "function"
    },
    {
      "inputs": [
        {
          "internalType": "address",
          "name": "_refugeeAddress",
          "type": "address"
        }
      ],
      "name": "verifyRefugee",
      "outputs": [],
      "stateMutability": "payable",
      "type": "function"
    },
    {
      "stateMutability": "payable",
      "type": "receive"
    }
  ],
  "bytecode": "0x608060405234801561001057600080fd5b50336000806101000a81548173ffffffffffffffffffffffffffffffffffffffff021916908373ffffffffffffffffffffffffffffffffffffffff16021790555066038d7ea4c6800060018190555067016345785d8a0000600281905550615f92806200007e6000396000f3fe60806040526004361061019f5760003560e01c806393cc8f12116100ec578063b444016b1161008a578063f5381b7f11610064578063f5381b7f146105e3578063fc2751eb1461060c578063fe65c84514610649578063ff9ae15e14610688576101a6565b8063b444016b14610556578063c71daccb1461059c578063d68f4217146105c7576101a6565b8063aa1bbcb0116100c6578063aa1bbcb0146104a9578063ab7b1c89146104d4578063ac640361146104fd578063ad6fbd5f14610519576101a6565b806393cc8f1214610439578063978e375b14610464578063a5bc13fa14610480576101a6565b8063580560061161015957806375fc989a1161013357806375fc989a1461037d57806378ec742d146103ba5780637ee0d3a6146103e55780638e4c569014610410576101a6565b806358056006146102bd5780635b7bb416146102fa57806366cc7ae014610337576101a6565b8062f4a816146101ab578063101bb6cc146101d6578063244dde2f146102015780632672f5261461021857806337492be0146102435780633acaabaf14610280576101a6565b366101a657005b600080fd5b3480156101b757600080fd5b506101c06106b3565b6040516101cd919061478b565b60405180910390f35b3480156101e257600080fd5b506101eb61083b565b6040516101f89190614a5e565b60405180910390f35b34801561020d57600080fd5b50610216610c6d565b005b34801561022457600080fd5b5061022d610de2565b60405161023a9190614aa1565b60405180910390f35b34801561024f57600080fd5b5061026a60048036038101906102659190614afc565b610e06565b6040516102779190614c18565b60405180910390f35b34801561028c57600080fd5b506102a760048036038101906102a29190614afc565b611299565b6040516102b49190614c49565b60405180910390f35b3480156102c957600080fd5b506102e460048036038101906102df9190614afc565b6112b1565b6040516102f19190614c73565b60405180910390f35b34801561030657600080fd5b50610321600480360381019061031c9190614afc565b6112d1565b60405161032e9190614c73565b60405180910390f35b34801561034357600080fd5b5061035e60048036038101906103599190614cba565b611386565b6040516103749a99989796959493929190614da4565b60405180910390f35b34801561038957600080fd5b506103a4600480360381019061039f9190614afc565b61167a565b6040516103b19190614c73565b60405180910390f35b3480156103c657600080fd5b506103cf611764565b6040516103dc9190614c49565b60405180910390f35b3480156103f157600080fd5b506103fa611783565b6040516104079190614c49565b60405180910390f35b34801561041c57600080fd5b5061043760048036038101906104329190614e81565b611789565b005b34801561044557600080fd5b5061044e611aa0565b60405161045b9190614a5e565b60405180910390f35b61047e60048036038101906104799190614afc565b611ed2565b005b34801561048c57600080fd5b506104a760048036038101906104a29190614afc565b612673565b005b3480156104b557600080fd5b506104be612798565b6040516104cb9190614a5e565b60405180910390f35b3480156104e057600080fd5b506104fb60048036038101906104f69190614cba565b612bca565b005b61051760048036038101906105129190614afc565b612fc1565b005b34801561052557600080fd5b50610540600480360381019061053b9190614afc565b61331a565b60405161054d9190614c49565b60405180910390f35b34801561056257600080fd5b5061057d60048036038101906105789190614cba565b613461565b6040516105939a99989796959493929190614da4565b60405180910390f35b3480156105a857600080fd5b506105b1613755565b6040516105be9190614c49565b60405180910390f35b6105e160048036038101906105dc9190614ff6565b61379c565b005b3480156105ef57600080fd5b5061060a60048036038101906106059190614afc565b613a38565b005b34801561061857600080fd5b50610633600480360381019061062e9190614afc565b613b70565b6040516106409190614c73565b60405180910390f35b34801561065557600080fd5b50610670600480360381019061066b9190614cba565b613c25565b60405161067f939291906150e1565b60405180910390f35b34801561069457600080fd5b5061069d613c8c565b6040516106aa9190614c49565b60405180910390f35b606060008054906101000a900473ffffffffffffffffffffffffffffffffffffffff1673ffffffffffffffffffffffffffffffffffffffff163373ffffffffffffffffffffffffffffffffffffffff1614610743576040517f08c379a000000000000000000000000000000000000000000000000000000000815260040161073a9061518a565b60405180910390fd5b6007805480602002602001604051908101604052809291908181526020016000905b8282101561083257838290600052602060002090600302016040518060600160405290816000820160009054906101000a900473ffffffffffffffffffffffffffffffffffffffff1673ffffffffffffffffffffffffffffffffffffffff1673ffffffffffffffffffffffffffffffffffffffff168152602001600182015481526020016002820160009054906101000a900460ff16600181111561080d5761080c61464f565b5b600181111561081f5761081e61464f565b5b8152505081526020019060010190610765565b50505050905090565b606060008054906101000a900473ffffffffffffffffffffffffffffffffffffffff1673ffffffffffffffffffffffffffffffffffffffff163373ffffffffffffffffffffffffffffffffffffffff16146108cb576040517f08c379a00000000000000000000000000000000000000000000000000000000081526004016108c29061518a565b60405180910390fd5b6004805480602002602001604051908101604052809291908181526020016000905b82821015610c6457838290600052602060002090600d0201604051806101400160405290816000820160009054906101000a900473ffffffffffffffffffffffffffffffffffffffff1673ffffffffffffffffffffffffffffffffffffffff1673ffffffffffffffffffffffffffffffffffffffff168152602001600182018054610977906151d9565b80601f01602080910402602001604051908101604052809291908181526020018280546109a3906151d9565b80156109f05780601f106109c5576101008083540402835291602001916109f0565b820191906000526020600020905b8154815290600101906020018083116109d357829003601f168201915b50505050508152602001600282018054610a09906151d9565b80601f0160208091040260200160405190810160405280929190818152602001828054610a35906151d9565b8015610a825780601f10610a5757610100808354040283529160200191610a82565b820191906000526020600020905b815481529060010190602001808311610a6557829003601f168201915b50505050508152602001600382018054610a9b906151d9565b80601f0160208091040260200160405190810160405280929190818152602001828054610ac7906151d9565b8015610b145780601f10610ae957610100808354040283529160200191610b14565b820191906000526020600020905b815481529060010190602001808311610af757829003601f168201915b50505050508152602001600482018054610b2d906151d9565b80601f0160208091040260200160405190810160405280929190818152602001828054610b59906151d9565b8015610ba65780601f10610b7b57610100808354040283529160200191610ba6565b820191906000526020600020905b815481529060010190602001808311610b8957829003601f168201915b505050505081526020016005820154815260200160068201548152602001600782015481526020016008820160009054906101000a900460ff166001811115610bf257610bf161464f565b5b6001811115610c0457610c0361464f565b5b8152602001600982016040518060800160405290816000820154815260200160018201548152602001600282015481526020016003820160009054906101000a900460ff16151515158152505081525050815260200190600101906108ed565b50505050905090565b610c76336112d1565b610cb5576040517f08c379a0000000000000000000000000000000000000000000000000000000008152600401610cac9061527c565b60405180910390fd5b6000610cc033613c92565b90506000816009016000015411610d0c576040517f08c379a0000000000000000000000000000000000000000000000000000000008152600401610d039061530e565b60405180910390fd5b600062015180826007015442610d22919061535d565b610d2c91906153c0565b90506019811015610d72576040517f08c379a0000000000000000000000000000000000000000000000000000000008152600401610d6990615463565b60405180910390fd5b6000604051806080016040528060488152602001615f156048913990503373ffffffffffffffffffffffffffffffffffffffff167f9b2ad96a106f22e7da7ab70854c90fa79af78ec7cb5240e520c1e7e4d94d6a6882604051610dd59190615483565b60405180910390a2505050565b60008054906101000a900473ffffffffffffffffffffffffffffffffffffffff1681565b610e0e6144c1565b60005b600480549050811015611258578273ffffffffffffffffffffffffffffffffffffffff1660048281548110610e4957610e486154a5565b5b90600052602060002090600d020160000160009054906101000a900473ffffffffffffffffffffffffffffffffffffffff1673ffffffffffffffffffffffffffffffffffffffff16148015610ec65750600060048281548110610eaf57610eae6154a5565b5b90600052602060002090600d020160090160000154115b156112455760048181548110610edf57610ede6154a5565b5b90600052602060002090600d0201604051806101400160405290816000820160009054906101000a900473ffffffffffffffffffffffffffffffffffffffff1673ffffffffffffffffffffffffffffffffffffffff1673ffffffffffffffffffffffffffffffffffffffff168152602001600182018054610f5f906151d9565b80601f0160208091040260200160405190810160405280929190818152602001828054610f8b906151d9565b8015610fd85780601f10610fad57610100808354040283529160200191610fd8565b820191906000526020600020905b815481529060010190602001808311610fbb57829003601f168201915b50505050508152602001600282018054610ff1906151d9565b80601f016020809104026020016040519081016040528092919081815260200182805461101d906151d9565b801561106a5780601f1061103f5761010080835404028352916020019161106a565b820191906000526020600020905b81548152906001019060200180831161104d57829003601f168201915b50505050508152602001600382018054611083906151d9565b80601f01602080910402602001604051908101604052809291908181526020018280546110af906151d9565b80156110fc5780601f106110d1576101008083540402835291602001916110fc565b820191906000526020600020905b8154815290600101906020018083116110df57829003601f168201915b50505050508152602001600482018054611115906151d9565b80601f0160208091040260200160405190810160405280929190818152602001828054611141906151d9565b801561118e5780601f106111635761010080835404028352916020019161118e565b820191906000526020600020905b81548152906001019060200180831161117157829003601f168201915b505050505081526020016005820154815260200160068201548152602001600782015481526020016008820160009054906101000a900460ff1660018111156111da576111d961464f565b5b60018111156111ec576111eb61464f565b5b8152602001600982016040518060800160405290816000820154815260200160018201548152602001600282015481526020016003820160009054906101000a900460ff16151515158152505081525050915050611294565b8080611250906154d4565b915050610e11565b506040517f08c379a000000000000000000000000000000000000000000000000000000000815260040161128b90615568565b60405180910390fd5b919050565b60056020528060005260406000206000915090505481565b60066020528060005260406000206000915054906101000a900460ff1681565b600080600090505b60038054905081101561137b578273ffffffffffffffffffffffffffffffffffffffff1660038281548110611311576113106154a5565b5b90600052602060002090600d020160000160009054906101000a900473ffffffffffffffffffffffffffffffffffffffff1673ffffffffffffffffffffffffffffffffffffffff1603611368576001915050611381565b8080611373906154d4565b9150506112d9565b50600090505b919050565b6003818154811061139657600080fd5b90600052602060002090600d02016000915090508060000160009054906101000a900473ffffffffffffffffffffffffffffffffffffffff16908060010180546113df906151d9565b80601f016020809104026020016040519081016040528092919081815260200182805461140b906151d9565b80156114585780601f1061142d57610100808354040283529160200191611458565b820191906000526020600020905b81548152906001019060200180831161143b57829003601f168201915b50505050509080600201805461146d906151d9565b80601f0160208091040260200160405190810160405280929190818152602001828054611499906151d9565b80156114e65780601f106114bb576101008083540402835291602001916114e6565b820191906000526020600020905b8154815290600101906020018083116114c957829003601f168201915b5050505050908060030180546114fb906151d9565b80601f0160208091040260200160405190810160405280929190818152602001828054611527906151d9565b80156115745780601f1061154957610100808354040283529160200191611574565b820191906000526020600020905b81548152906001019060200180831161155757829003601f168201915b505050505090806004018054611589906151d9565b80601f01602080910402602001604051908101604052809291908181526020018280546115b5906151d9565b80156116025780601f106115d757610100808354040283529160200191611602565b820191906000526020600020905b8154815290600101906020018083116115e557829003601f168201915b5050505050908060050154908060060154908060070154908060080160009054906101000a900460ff1690806009016040518060800160405290816000820154815260200160018201548152602001600282015481526020016003820160009054906101000a900460ff16151515158152505090508a565b600080600090505b600480549050811015611759578273ffffffffffffffffffffffffffffffffffffffff16600482815481106116ba576116b96154a5565b5b90600052602060002090600d020160000160009054906101000a900473ffffffffffffffffffffffffffffffffffffffff1673ffffffffffffffffffffffffffffffffffffffff1614801561173757506000600482815481106117205761171f6154a5565b5b90600052602060002090600d020160090160000154115b1561174657600191505061175f565b8080611751906154d4565b915050611682565b50600090505b919050565b60003373ffffffffffffffffffffffffffffffffffffffff1631905090565b60015481565b611792336112d1565b6117d1576040517f08c379a00000000000000000000000000000000000000000000000000000000081526004016117c8906155fa565b60405180910390fd5b60008211611814576040517f08c379a000000000000000000000000000000000000000000000000000000000815260040161180b9061568c565b60405180910390fd5b60046040518061014001604052803373ffffffffffffffffffffffffffffffffffffffff168152602001604051806020016040528060008152508152602001604051806020016040528060008152508152602001604051806020016040528060008152508152602001604051806020016040528060008152508152602001600081526020016000815260200160008152602001600060018111156118bb576118ba61464f565b5b8152602001604051806080016040528086815260200160008152602001600081526020016000151581525081525090806001815401808255809150506001900390600052602060002090600d020160009091909190915060008201518160000160006101000a81548173ffffffffffffffffffffffffffffffffffffffff021916908373ffffffffffffffffffffffffffffffffffffffff160217905550602082015181600101908161196e9190615858565b5060408201518160020190816119849190615858565b50606082015181600301908161199a9190615858565b5060808201518160040190816119b09190615858565b5060a0820151816005015560c0820151816006015560e082015181600701556101008201518160080160006101000a81548160ff021916908360018111156119fb576119fa61464f565b5b02179055506101208201518160090160008201518160000155602082015181600101556040820151816002015560608201518160030160006101000a81548160ff021916908315150217905550505050503373ffffffffffffffffffffffffffffffffffffffff167fcf36b7252fc9d27f871a815bed7ae105d506db472872c5072aab84220aaf013f8383604051611a9492919061592a565b60405180910390a25050565b606060008054906101000a900473ffffffffffffffffffffffffffffffffffffffff1673ffffffffffffffffffffffffffffffffffffffff163373ffffffffffffffffffffffffffffffffffffffff1614611b30576040517f08c379a0000000000000000000000000000000000000000000000000000000008152600401611b279061518a565b60405180910390fd5b6004805480602002602001604051908101604052809291908181526020016000905b82821015611ec957838290600052602060002090600d0201604051806101400160405290816000820160009054906101000a900473ffffffffffffffffffffffffffffffffffffffff1673ffffffffffffffffffffffffffffffffffffffff1673ffffffffffffffffffffffffffffffffffffffff168152602001600182018054611bdc906151d9565b80601f0160208091040260200160405190810160405280929190818152602001828054611c08906151d9565b8015611c555780601f10611c2a57610100808354040283529160200191611c55565b820191906000526020600020905b815481529060010190602001808311611c3857829003601f168201915b50505050508152602001600282018054611c6e906151d9565b80601f0160208091040260200160405190810160405280929190818152602001828054611c9a906151d9565b8015611ce75780601f10611cbc57610100808354040283529160200191611ce7565b820191906000526020600020905b815481529060010190602001808311611cca57829003601f168201915b50505050508152602001600382018054611d00906151d9565b80601f0160208091040260200160405190810160405280929190818152602001828054611d2c906151d9565b8015611d795780601f10611d4e57610100808354040283529160200191611d79565b820191906000526020600020905b815481529060010190602001808311611d5c57829003601f168201915b50505050508152602001600482018054611d92906151d9565b80601f0160208091040260200160405190810160405280929190818152602001828054611dbe906151d9565b8015611e0b5780601f10611de057610100808354040283529160200191611e0b565b820191906000526020600020905b815481529060010190602001808311611dee57829003601f168201915b505050505081526020016005820154815260200160068201548152602001600782015481526020016008820160009054906101000a900460ff166001811115611e5757611e5661464f565b5b6001811115611e6957611e6861464f565b5b8152602001600982016040518060800160405290816000820154815260200160018201548152602001600282015481526020016003820160009054906101000a900460ff1615151515815250508152505081526020019060010190611b52565b50505050905090565b60008054906101000a900473ffffffffffffffffffffffffffffffffffffffff1673ffffffffffffffffffffffffffffffffffffffff163373ffffffffffffffffffffffffffffffffffffffff1614611f60576040517f08c379a0000000000000000000000000000000000000000000000000000000008152600401611f579061518a565b60405180910390fd5b611f6981613b70565b611fa8576040517f08c379a0000000000000000000000000000000000000000000000000000000008152600401611f9f906159c5565b60405180910390fd5b600066b1a2bc2ec50000905080471015611ff7576040517f08c379a0000000000000000000000000000000000000000000000000000000008152600401611fee90615a31565b60405180910390fd5b611fff6144c1565b60005b600480549050811015612413578373ffffffffffffffffffffffffffffffffffffffff166004828154811061203a576120396154a5565b5b90600052602060002090600d020160000160009054906101000a900473ffffffffffffffffffffffffffffffffffffffff1673ffffffffffffffffffffffffffffffffffffffff1603612400576004818154811061209b5761209a6154a5565b5b90600052602060002090600d0201604051806101400160405290816000820160009054906101000a900473ffffffffffffffffffffffffffffffffffffffff1673ffffffffffffffffffffffffffffffffffffffff1673ffffffffffffffffffffffffffffffffffffffff16815260200160018201805461211b906151d9565b80601f0160208091040260200160405190810160405280929190818152602001828054612147906151d9565b80156121945780601f1061216957610100808354040283529160200191612194565b820191906000526020600020905b81548152906001019060200180831161217757829003601f168201915b505050505081526020016002820180546121ad906151d9565b80601f01602080910402602001604051908101604052809291908181526020018280546121d9906151d9565b80156122265780601f106121fb57610100808354040283529160200191612226565b820191906000526020600020905b81548152906001019060200180831161220957829003601f168201915b5050505050815260200160038201805461223f906151d9565b80601f016020809104026020016040519081016040528092919081815260200182805461226b906151d9565b80156122b85780601f1061228d576101008083540402835291602001916122b8565b820191906000526020600020905b81548152906001019060200180831161229b57829003601f168201915b505050505081526020016004820180546122d1906151d9565b80601f01602080910402602001604051908101604052809291908181526020018280546122fd906151d9565b801561234a5780601f1061231f5761010080835404028352916020019161234a565b820191906000526020600020905b81548152906001019060200180831161232d57829003601f168201915b505050505081526020016005820154815260200160068201548152602001600782015481526020016008820160009054906101000a900460ff1660018111156123965761239561464f565b5b60018111156123a8576123a761464f565b5b8152602001600982016040518060800160405290816000820154815260200160018201548152602001600282015481526020016003820160009054906101000a900460ff161515151581525050815250509150612413565b808061240b906154d4565b915050612002565b5060038190806001815401808255809150506001900390600052602060002090600d020160009091909190915060008201518160000160006101000a81548173ffffffffffffffffffffffffffffffffffffffff021916908373ffffffffffffffffffffffffffffffffffffffff160217905550602082015181600101908161249c9190615858565b5060408201518160020190816124b29190615858565b5060608201518160030190816124c89190615858565b5060808201518160040190816124de9190615858565b5060a0820151816005015560c0820151816006015560e082015181600701556101008201518160080160006101000a81548160ff021916908360018111156125295761252861464f565b5b02179055506101208201518160090160008201518160000155602082015181600101556040820151816002015560608201518160030160006101000a81548160ff0219169083151502179055505050505061258383613d9d565b81600560008573ffffffffffffffffffffffffffffffffffffffff1673ffffffffffffffffffffffffffffffffffffffff16815260200190815260200160002060008282546125d29190615a51565b925050819055508273ffffffffffffffffffffffffffffffffffffffff166108fc839081150290604051600060405180830381858888f1935050505015801561261f573d6000803e3d6000fd5b508273ffffffffffffffffffffffffffffffffffffffff167f6f485fd914dc0150fd0fc6f43fd1135a94bee8de8488880ca5211ebdd73cb213836040516126669190614c49565b60405180910390a2505050565b60008054906101000a900473ffffffffffffffffffffffffffffffffffffffff1673ffffffffffffffffffffffffffffffffffffffff163373ffffffffffffffffffffffffffffffffffffffff1614612701576040517f08c379a00000000000000000000000000000000000000000000000000000000081526004016126f89061518a565b60405180910390fd5b61270a81613b70565b612749576040517f08c379a0000000000000000000000000000000000000000000000000000000008152600401612740906159c5565b60405180910390fd5b61275281613d9d565b8073ffffffffffffffffffffffffffffffffffffffff167ff94995162152299865351c8948bcd8754b80cc157987c8d05c08f0e3a617ab1360405160405180910390a250565b606060008054906101000a900473ffffffffffffffffffffffffffffffffffffffff1673ffffffffffffffffffffffffffffffffffffffff163373ffffffffffffffffffffffffffffffffffffffff1614612828576040517f08c379a000000000000000000000000000000000000000000000000000000000815260040161281f9061518a565b60405180910390fd5b6003805480602002602001604051908101604052809291908181526020016000905b82821015612bc157838290600052602060002090600d0201604051806101400160405290816000820160009054906101000a900473ffffffffffffffffffffffffffffffffffffffff1673ffffffffffffffffffffffffffffffffffffffff1673ffffffffffffffffffffffffffffffffffffffff1681526020016001820180546128d4906151d9565b80601f0160208091040260200160405190810160405280929190818152602001828054612900906151d9565b801561294d5780601f106129225761010080835404028352916020019161294d565b820191906000526020600020905b81548152906001019060200180831161293057829003601f168201915b50505050508152602001600282018054612966906151d9565b80601f0160208091040260200160405190810160405280929190818152602001828054612992906151d9565b80156129df5780601f106129b4576101008083540402835291602001916129df565b820191906000526020600020905b8154815290600101906020018083116129c257829003601f168201915b505050505081526020016003820180546129f8906151d9565b80601f0160208091040260200160405190810160405280929190818152602001828054612a24906151d9565b8015612a715780601f10612a4657610100808354040283529160200191612a71565b820191906000526020600020905b815481529060010190602001808311612a5457829003601f168201915b50505050508152602001600482018054612a8a906151d9565b80601f0160208091040260200160405190810160405280929190818152602001828054612ab6906151d9565b8015612b035780601f10612ad857610100808354040283529160200191612b03565b820191906000526020600020905b815481529060010190602001808311612ae657829003601f168201915b505050505081526020016005820154815260200160068201548152602001600782015481526020016008820160009054906101000a900460ff166001811115612b4f57612b4e61464f565b5b6001811115612b6157612b6061464f565b5b8152602001600982016040518060800160405290816000820154815260200160018201548152602001600282015481526020016003820160009054906101000a900460ff161515151581525050815250508152602001906001019061284a565b50505050905090565b612bd3336112d1565b612c12576040517f08c379a0000000000000000000000000000000000000000000000000000000008152600401612c0990615af7565b60405180910390fd5b60008111612c55576040517f08c379a0000000000000000000000000000000000000000000000000000000008152600401612c4c90615b89565b60405180910390fd5b6000612c6033613c92565b90506000816009016000015411612cac576040517f08c379a0000000000000000000000000000000000000000000000000000000008152600401612ca39061530e565b60405180910390fd5b81600560003373ffffffffffffffffffffffffffffffffffffffff1673ffffffffffffffffffffffffffffffffffffffff168152602001908152602001600020541015612d2e576040517f08c379a0000000000000000000000000000000000000000000000000000000008152600401612d2590615c1b565b60405180910390fd5b6000612d39826140f5565b90506000818360090160010154612d509190615a51565b905080841015612d95576040517f08c379a0000000000000000000000000000000000000000000000000000000008152600401612d8c90615c87565b60405180910390fd5b60008054906101000a900473ffffffffffffffffffffffffffffffffffffffff1673ffffffffffffffffffffffffffffffffffffffff166108fc859081150290604051600060405180830381858888f19350505050158015612dfb573d6000803e3d6000fd5b508260090160010154836009016000016000828254612e1a919061535d565b9250508190555060008360090160000154148360090160030160006101000a81548160ff02191690831515021790555083600560003373ffffffffffffffffffffffffffffffffffffffff1673ffffffffffffffffffffffffffffffffffffffff1681526020019081526020016000206000828254612e99919061535d565b925050819055503373ffffffffffffffffffffffffffffffffffffffff167fc200a1f31dd659e356e0f112c82558e25f49f7b0f84438691cd96f5cb355882385604051612ee69190614c49565b60405180910390a26000821115612fa8576002548210612fa7576001600660003373ffffffffffffffffffffffffffffffffffffffff1673ffffffffffffffffffffffffffffffffffffffff16815260200190815260200160002060006101000a81548160ff0219169083151502179055503373ffffffffffffffffffffffffffffffffffffffff167f0be253503c49f8fb02046da3ef57bc2f5f881eb14ba5c2c26b54bf2fb4e7db0783604051612f9e9190614c49565b60405180910390a25b5b8260090160030160009054906101000a90505050505050565b60008054906101000a900473ffffffffffffffffffffffffffffffffffffffff1673ffffffffffffffffffffffffffffffffffffffff163373ffffffffffffffffffffffffffffffffffffffff161461304f576040517f08c379a00000000000000000000000000000000000000000000000000000000081526004016130469061518a565b60405180910390fd5b6130588161167a565b613097576040517f08c379a000000000000000000000000000000000000000000000000000000000815260040161308e90615d19565b60405180910390fd5b60006130a282610e06565b9050600060405180606001604052808473ffffffffffffffffffffffffffffffffffffffff16815260200183610120015160000151815260200183610100015160018111156130f4576130f361464f565b5b8152509050600781908060018154018082558091505060019003906000526020600020906003020160009091909190915060008201518160000160006101000a81548173ffffffffffffffffffffffffffffffffffffffff021916908373ffffffffffffffffffffffffffffffffffffffff1602179055506020820151816001015560408201518160020160006101000a81548160ff021916908360018111156131a1576131a061464f565b5b021790555050506131b183614134565b81610120015160000151600560008573ffffffffffffffffffffffffffffffffffffffff1673ffffffffffffffffffffffffffffffffffffffff16815260200190815260200160002060008282546132099190615a51565b925050819055508273ffffffffffffffffffffffffffffffffffffffff166108fc836101200151600001519081150290604051600060405180830381858888f1935050505015801561325f573d6000803e3d6000fd5b508273ffffffffffffffffffffffffffffffffffffffff167f6f485fd914dc0150fd0fc6f43fd1135a94bee8de8488880ca5211ebdd73cb213836101200151600001516040516132af9190614c49565b60405180910390a28273ffffffffffffffffffffffffffffffffffffffff167fe12553365ac111f078465e98ea7c24964aa60ba889422998f8caa584e699d6d08361012001516000015184610100015160405161330d92919061592a565b60405180910390a2505050565b600080600090505b600480549050811015613420578273ffffffffffffffffffffffffffffffffffffffff166004828154811061335a576133596154a5565b5b90600052602060002090600d020160000160009054906101000a900473ffffffffffffffffffffffffffffffffffffffff1673ffffffffffffffffffffffffffffffffffffffff161480156133d757506000600482815481106133c0576133bf6154a5565b5b90600052602060002090600d020160090160000154115b1561340d57600481815481106133f0576133ef6154a5565b5b90600052602060002090600d02016009016000015491505061345c565b8080613418906154d4565b915050613322565b506040517f08c379a000000000000000000000000000000000000000000000000000000000815260040161345390615568565b60405180910390fd5b919050565b6004818154811061347157600080fd5b90600052602060002090600d02016000915090508060000160009054906101000a900473ffffffffffffffffffffffffffffffffffffffff16908060010180546134ba906151d9565b80601f01602080910402602001604051908101604052809291908181526020018280546134e6906151d9565b80156135335780601f1061350857610100808354040283529160200191613533565b820191906000526020600020905b81548152906001019060200180831161351657829003601f168201915b505050505090806002018054613548906151d9565b80601f0160208091040260200160405190810160405280929190818152602001828054613574906151d9565b80156135c15780601f10613596576101008083540402835291602001916135c1565b820191906000526020600020905b8154815290600101906020018083116135a457829003601f168201915b5050505050908060030180546135d6906151d9565b80601f0160208091040260200160405190810160405280929190818152602001828054613602906151d9565b801561364f5780601f106136245761010080835404028352916020019161364f565b820191906000526020600020905b81548152906001019060200180831161363257829003601f168201915b505050505090806004018054613664906151d9565b80601f0160208091040260200160405190810160405280929190818152602001828054613690906151d9565b80156136dd5780601f106136b2576101008083540402835291602001916136dd565b820191906000526020600020905b8154815290600101906020018083116136c057829003601f168201915b5050505050908060050154908060060154908060070154908060080160009054906101000a900460ff1690806009016040518060800160405290816000820154815260200160018201548152602001600282015481526020016003820160009054906101000a900460ff16151515158152505090508a565b6000600560003373ffffffffffffffffffffffffffffffffffffffff1673ffffffffffffffffffffffffffffffffffffffff16815260200190815260200160002054905090565b60046040518061014001604052803373ffffffffffffffffffffffffffffffffffffffff1681526020018781526020018681526020018581526020018481526020018381526020016000815260200160008152602001600060018111156138065761380561464f565b5b815260200160405180608001604052806000815260200160008152602001600081526020016000151581525081525090806001815401808255809150506001900390600052602060002090600d020160009091909190915060008201518160000160006101000a81548173ffffffffffffffffffffffffffffffffffffffff021916908373ffffffffffffffffffffffffffffffffffffffff16021790555060208201518160010190816138ba9190615858565b5060408201518160020190816138d09190615858565b5060608201518160030190816138e69190615858565b5060808201518160040190816138fc9190615858565b5060a0820151816005015560c0820151816006015560e082015181600701556101008201518160080160006101000a81548160ff021916908360018111156139475761394661464f565b5b02179055506101208201518160090160008201518160000155602082015181600101556040820151816002015560608201518160030160006101000a81548160ff0219169083151502179055505050505034600560003373ffffffffffffffffffffffffffffffffffffffff1673ffffffffffffffffffffffffffffffffffffffff16815260200190815260200160002060008282546139e79190615a51565b925050819055503373ffffffffffffffffffffffffffffffffffffffff167fb17352af83ba1a7718895bef09ea67cd4f69e3321b1894e58b4439bed53fdce060405160405180910390a25050505050565b60008054906101000a900473ffffffffffffffffffffffffffffffffffffffff1673ffffffffffffffffffffffffffffffffffffffff163373ffffffffffffffffffffffffffffffffffffffff1614613ac6576040517f08c379a0000000000000000000000000000000000000000000000000000000008152600401613abd9061518a565b60405180910390fd5b613acf8161167a565b613b0e576040517f08c379a0000000000000000000000000000000000000000000000000000000008152600401613b0590615d19565b60405180910390fd5b613b1781614134565b8073ffffffffffffffffffffffffffffffffffffffff167fa714a7fc2809c802ef692ad0c341254025eefb18881c5c762085b6d98ee1170a613b588361331a565b604051613b659190614c49565b60405180910390a250565b600080600090505b600480549050811015613c1a578273ffffffffffffffffffffffffffffffffffffffff1660048281548110613bb057613baf6154a5565b5b90600052602060002090600d020160000160009054906101000a900473ffffffffffffffffffffffffffffffffffffffff1673ffffffffffffffffffffffffffffffffffffffff1603613c07576001915050613c20565b8080613c12906154d4565b915050613b78565b50600090505b919050565b60078181548110613c3557600080fd5b90600052602060002090600302016000915090508060000160009054906101000a900473ffffffffffffffffffffffffffffffffffffffff16908060010154908060020160009054906101000a900460ff16905083565b60025481565b600080600090505b600380549050811015613d5c578273ffffffffffffffffffffffffffffffffffffffff1660038281548110613cd257613cd16154a5565b5b90600052602060002090600d020160000160009054906101000a900473ffffffffffffffffffffffffffffffffffffffff1673ffffffffffffffffffffffffffffffffffffffff1603613d495760038181548110613d3357613d326154a5565b5b90600052602060002090600d0201915050613d98565b8080613d54906154d4565b915050613c9a565b506040517f08c379a0000000000000000000000000000000000000000000000000000000008152600401613d8f90615d85565b60405180910390fd5b919050565b60005b6004805490508110156140f1578173ffffffffffffffffffffffffffffffffffffffff1660048281548110613dd857613dd76154a5565b5b90600052602060002090600d020160000160009054906101000a900473ffffffffffffffffffffffffffffffffffffffff1673ffffffffffffffffffffffffffffffffffffffff16036140de5760046001600480549050613e39919061535d565b81548110613e4a57613e496154a5565b5b90600052602060002090600d020160048281548110613e6c57613e6b6154a5565b5b90600052602060002090600d02016000820160009054906101000a900473ffffffffffffffffffffffffffffffffffffffff168160000160006101000a81548173ffffffffffffffffffffffffffffffffffffffff021916908373ffffffffffffffffffffffffffffffffffffffff16021790555060018201816001019081613ef59190615dbb565b5060028201816002019081613f0a9190615dbb565b5060038201816003019081613f1f9190615dbb565b5060048201816004019081613f349190615dbb565b506005820154816005015560068201548160060155600782015481600701556008820160009054906101000a900460ff168160080160006101000a81548160ff02191690836001811115613f8b57613f8a61464f565b5b021790555060098201816009016000820154816000015560018201548160010155600282015481600201556003820160009054906101000a900460ff168160030160006101000a81548160ff02191690831515021790555050509050506004805480613ffa57613ff9615ea3565b5b60019003818190600052602060002090600d0201600080820160006101000a81549073ffffffffffffffffffffffffffffffffffffffff02191690556001820160006140469190614542565b6002820160006140569190614542565b6003820160006140669190614542565b6004820160006140769190614542565b6005820160009055600682016000905560078201600090556008820160006101000a81549060ff021916905560098201600080820160009055600182016000905560028201600090556003820160006101000a81549060ff02191690555050505090556140f1565b80806140e9906154d4565b915050613da0565b5050565b6000806201518083600701544261410c919061535d565b61411691906153c0565b90506000816001546141289190615ed2565b90508092505050919050565b60005b6004805490508110156144bd578173ffffffffffffffffffffffffffffffffffffffff166004828154811061416f5761416e6154a5565b5b90600052602060002090600d020160000160009054906101000a900473ffffffffffffffffffffffffffffffffffffffff1673ffffffffffffffffffffffffffffffffffffffff161480156141ec57506000600482815481106141d5576141d46154a5565b5b90600052602060002090600d020160090160000154115b156144aa5760046001600480549050614205919061535d565b81548110614216576142156154a5565b5b90600052602060002090600d020160048281548110614238576142376154a5565b5b90600052602060002090600d02016000820160009054906101000a900473ffffffffffffffffffffffffffffffffffffffff168160000160006101000a81548173ffffffffffffffffffffffffffffffffffffffff021916908373ffffffffffffffffffffffffffffffffffffffff160217905550600182018160010190816142c19190615dbb565b50600282018160020190816142d69190615dbb565b50600382018160030190816142eb9190615dbb565b50600482018160040190816143009190615dbb565b506005820154816005015560068201548160060155600782015481600701556008820160009054906101000a900460ff168160080160006101000a81548160ff021916908360018111156143575761435661464f565b5b021790555060098201816009016000820154816000015560018201548160010155600282015481600201556003820160009054906101000a900460ff168160030160006101000a81548160ff021916908315150217905550505090505060048054806143c6576143c5615ea3565b5b60019003818190600052602060002090600d0201600080820160006101000a81549073ffffffffffffffffffffffffffffffffffffffff02191690556001820160006144129190614542565b6002820160006144229190614542565b6003820160006144329190614542565b6004820160006144429190614542565b6005820160009055600682016000905560078201600090556008820160006101000a81549060ff021916905560098201600080820160009055600182016000905560028201600090556003820160006101000a81549060ff02191690555050505090556144bd565b80806144b5906154d4565b915050614137565b5050565b604051806101400160405280600073ffffffffffffffffffffffffffffffffffffffff168152602001606081526020016060815260200160608152602001606081526020016000815260200160008152602001600081526020016000600181111561452f5761452e61464f565b5b815260200161453c614582565b81525090565b50805461454e906151d9565b6000825580601f10614560575061457f565b601f01602090049060005260206000209081019061457e91906145ac565b5b50565b60405180608001604052806000815260200160008152602001600081526020016000151581525090565b5b808211156145c55760008160009055506001016145ad565b5090565b600081519050919050565b600082825260208201905092915050565b6000819050602082019050919050565b600073ffffffffffffffffffffffffffffffffffffffff82169050919050565b6000614620826145f5565b9050919050565b61463081614615565b82525050565b6000819050919050565b61464981614636565b82525050565b7f4e487b7100000000000000000000000000000000000000000000000000000000600052602160045260246000fd5b6002811061468f5761468e61464f565b5b50565b60008190506146a08261467e565b919050565b60006146b082614692565b9050919050565b6146c0816146a5565b82525050565b6060820160008201516146dc6000850182614627565b5060208201516146ef6020850182614640565b50604082015161470260408501826146b7565b50505050565b600061471483836146c6565b60608301905092915050565b6000602082019050919050565b6000614738826145c9565b61474281856145d4565b935061474d836145e5565b8060005b8381101561477e5781516147658882614708565b975061477083614720565b925050600181019050614751565b5085935050505092915050565b600060208201905081810360008301526147a5818461472d565b905092915050565b600081519050919050565b600082825260208201905092915050565b6000819050602082019050919050565b600081519050919050565b600082825260208201905092915050565b60005b838110156148135780820151818401526020810190506147f8565b60008484015250505050565b6000601f19601f8301169050919050565b600061483b826147d9565b61484581856147e4565b93506148558185602086016147f5565b61485e8161481f565b840191505092915050565b60008115159050919050565b61487e81614869565b82525050565b60808201600082015161489a6000850182614640565b5060208201516148ad6020850182614640565b5060408201516148c06040850182614640565b5060608201516148d36060850182614875565b50505050565b60006101a0830160008301516148f26000860182614627565b506020830151848203602086015261490a8282614830565b915050604083015184820360408601526149248282614830565b9150506060830151848203606086015261493e8282614830565b915050608083015184820360808601526149588282614830565b91505060a083015161496d60a0860182614640565b5060c083015161498060c0860182614640565b5060e083015161499360e0860182614640565b506101008301516149a86101008601826146b7565b506101208301516149bd610120860182614884565b508091505092915050565b60006149d483836148d9565b905092915050565b6000602082019050919050565b60006149f4826147ad565b6149fe81856147b8565b935083602082028501614a10856147c9565b8060005b85811015614a4c5784840389528151614a2d85826149c8565b9450614a38836149dc565b925060208a01995050600181019050614a14565b50829750879550505050505092915050565b60006020820190508181036000830152614a7881846149e9565b905092915050565b6000614a8b826145f5565b9050919050565b614a9b81614a80565b82525050565b6000602082019050614ab66000830184614a92565b92915050565b6000604051905090565b600080fd5b600080fd5b614ad981614615565b8114614ae457600080fd5b50565b600081359050614af681614ad0565b92915050565b600060208284031215614b1257614b11614ac6565b5b6000614b2084828501614ae7565b91505092915050565b60006101a083016000830151614b426000860182614627565b5060208301518482036020860152614b5a8282614830565b91505060408301518482036040860152614b748282614830565b91505060608301518482036060860152614b8e8282614830565b91505060808301518482036080860152614ba88282614830565b91505060a0830151614bbd60a0860182614640565b5060c0830151614bd060c0860182614640565b5060e0830151614be360e0860182614640565b50610100830151614bf86101008601826146b7565b50610120830151614c0d610120860182614884565b508091505092915050565b60006020820190508181036000830152614c328184614b29565b905092915050565b614c4381614636565b82525050565b6000602082019050614c5e6000830184614c3a565b92915050565b614c6d81614869565b82525050565b6000602082019050614c886000830184614c64565b92915050565b614c9781614636565b8114614ca257600080fd5b50565b600081359050614cb481614c8e565b92915050565b600060208284031215614cd057614ccf614ac6565b5b6000614cde84828501614ca5565b91505092915050565b614cf081614615565b82525050565b600082825260208201905092915050565b6000614d12826147d9565b614d1c8185614cf6565b9350614d2c8185602086016147f5565b614d358161481f565b840191505092915050565b614d49816146a5565b82525050565b608082016000820151614d656000850182614640565b506020820151614d786020850182614640565b506040820151614d8b6040850182614640565b506060820151614d9e6060850182614875565b50505050565b60006101a082019050614dba600083018d614ce7565b8181036020830152614dcc818c614d07565b90508181036040830152614de0818b614d07565b90508181036060830152614df4818a614d07565b90508181036080830152614e088189614d07565b9050614e1760a0830188614c3a565b614e2460c0830187614c3a565b614e3160e0830186614c3a565b614e3f610100830185614d40565b614e4d610120830184614d4f565b9b9a5050505050505050505050565b60028110614e6957600080fd5b50565b600081359050614e7b81614e5c565b92915050565b60008060408385031215614e9857614e97614ac6565b5b6000614ea685828601614ca5565b9250506020614eb785828601614e6c565b9150509250929050565b600080fd5b600080fd5b7f4e487b7100000000000000000000000000000000000000000000000000000000600052604160045260246000fd5b614f038261481f565b810181811067ffffffffffffffff82111715614f2257614f21614ecb565b5b80604052505050565b6000614f35614abc565b9050614f418282614efa565b919050565b600067ffffffffffffffff821115614f6157614f60614ecb565b5b614f6a8261481f565b9050602081019050919050565b82818337600083830152505050565b6000614f99614f9484614f46565b614f2b565b905082815260208101848484011115614fb557614fb4614ec6565b5b614fc0848285614f77565b509392505050565b600082601f830112614fdd57614fdc614ec1565b5b8135614fed848260208601614f86565b91505092915050565b600080600080600060a0868803121561501257615011614ac6565b5b600086013567ffffffffffffffff8111156150305761502f614acb565b5b61503c88828901614fc8565b955050602086013567ffffffffffffffff81111561505d5761505c614acb565b5b61506988828901614fc8565b945050604086013567ffffffffffffffff81111561508a57615089614acb565b5b61509688828901614fc8565b935050606086013567ffffffffffffffff8111156150b7576150b6614acb565b5b6150c388828901614fc8565b92505060806150d488828901614ca5565b9150509295509295909350565b60006060820190506150f66000830186614ce7565b6151036020830185614c3a565b6151106040830184614d40565b949350505050565b7f4f6e6c7920676f7665726e6d656e742063616e2063616c6c207468697320667560008201527f6e6374696f6e0000000000000000000000000000000000000000000000000000602082015250565b6000615174602683614cf6565b915061517f82615118565b604082019050919050565b600060208201905081810360008301526151a381615167565b9050919050565b7f4e487b7100000000000000000000000000000000000000000000000000000000600052602260045260246000fd5b600060028204905060018216806151f157607f821691505b602082108103615204576152036151aa565b5b50919050565b7f4f6e6c792076657269666965642072656675676565732063616e20726563656960008201527f76652072656d696e646572730000000000000000000000000000000000000000602082015250565b6000615266602c83614cf6565b91506152718261520a565b604082019050919050565b6000602082019050818103600083015261529581615259565b9050919050565b7f5265667567656520646f6573206e6f74206861766520616e206163746976652060008201527f6c6f616e00000000000000000000000000000000000000000000000000000000602082015250565b60006152f8602483614cf6565b91506153038261529c565b604082019050919050565b60006020820190508181036000830152615327816152eb565b9050919050565b7f4e487b7100000000000000000000000000000000000000000000000000000000600052601160045260246000fd5b600061536882614636565b915061537383614636565b925082820390508181111561538b5761538a61532e565b5b92915050565b7f4e487b7100000000000000000000000000000000000000000000000000000000600052601260045260246000fd5b60006153cb82614636565b91506153d683614636565b9250826153e6576153e5615391565b5b828204905092915050565b7f52656d696e6465722063616e2062652073656e7420616674657220323520646160008201527f7973206f66206c6173742072657061796d656e74206461746500000000000000602082015250565b600061544d603983614cf6565b9150615458826153f1565b604082019050919050565b6000602082019050818103600083015261547c81615440565b9050919050565b6000602082019050818103600083015261549d8184614d07565b905092915050565b7f4e487b7100000000000000000000000000000000000000000000000000000000600052603260045260246000fd5b60006154df82614636565b91507fffffffffffffffffffffffffffffffffffffffffffffffffffffffffffffffff82036155115761551061532e565b5b600182019050919050565b7f4c6f616e2072657175657374206e6f7420666f756e6400000000000000000000600082015250565b6000615552601683614cf6565b915061555d8261551c565b602082019050919050565b6000602082019050818103600083015261558181615545565b9050919050565b7f4f6e6c792076657269666965642072656675676565732063616e2074616b652060008201527f6c6f616e73000000000000000000000000000000000000000000000000000000602082015250565b60006155e4602583614cf6565b91506155ef82615588565b604082019050919050565b60006020820190508181036000830152615613816155d7565b9050919050565b7f4c6f616e20616d6f756e74206d7573742062652067726561746572207468616e60008201527f2030000000000000000000000000000000000000000000000000000000000000602082015250565b6000615676602283614cf6565b91506156818261561a565b604082019050919050565b600060208201905081810360008301526156a581615669565b9050919050565b60008190508160005260206000209050919050565b60006020601f8301049050919050565b600082821b905092915050565b60006008830261570e7fffffffffffffffffffffffffffffffffffffffffffffffffffffffffffffffff826156d1565b61571886836156d1565b95508019841693508086168417925050509392505050565b6000819050919050565b600061575561575061574b84614636565b615730565b614636565b9050919050565b6000819050919050565b61576f8361573a565b61578361577b8261575c565b8484546156de565b825550505050565b600090565b61579861578b565b6157a3818484615766565b505050565b5b818110156157c7576157bc600082615790565b6001810190506157a9565b5050565b601f82111561580c576157dd816156ac565b6157e6846156c1565b810160208510156157f5578190505b615809615801856156c1565b8301826157a8565b50505b505050565b600082821c905092915050565b600061582f60001984600802615811565b1980831691505092915050565b6000615848838361581e565b9150826002028217905092915050565b615861826147d9565b67ffffffffffffffff81111561587a57615879614ecb565b5b61588482546151d9565b61588f8282856157cb565b600060209050601f8311600181146158c257600084156158b0578287015190505b6158ba858261583c565b865550615922565b601f1984166158d0866156ac565b60005b828110156158f8578489015182556001820191506020850194506020810190506158d3565b868310156159155784890151615911601f89168261581e565b8355505b6001600288020188555050505b505050505050565b600060408201905061593f6000830185614c3a565b61594c6020830184614d40565b9392505050565b7f52656675676565206e6f7420666f756e64206f7220616c72656164792076657260008201527f6966696564000000000000000000000000000000000000000000000000000000602082015250565b60006159af602583614cf6565b91506159ba82615953565b604082019050919050565b600060208201905081810360008301526159de816159a2565b9050919050565b7f496e73756666696369656e7420636f6e74726163742062616c616e6365000000600082015250565b6000615a1b601d83614cf6565b9150615a26826159e5565b602082019050919050565b60006020820190508181036000830152615a4a81615a0e565b9050919050565b6000615a5c82614636565b9150615a6783614636565b9250828201905080821115615a7f57615a7e61532e565b5b92915050565b7f4f6e6c792076657269666965642072656675676565732063616e20726570617960008201527f206c6f616e730000000000000000000000000000000000000000000000000000602082015250565b6000615ae1602683614cf6565b9150615aec82615a85565b604082019050919050565b60006020820190508181036000830152615b1081615ad4565b9050919050565b7f52657061796d656e7420616d6f756e74206d757374206265206772656174657260008201527f207468616e203000000000000000000000000000000000000000000000000000602082015250565b6000615b73602783614cf6565b9150615b7e82615b17565b604082019050919050565b60006020820190508181036000830152615ba281615b66565b9050919050565b7f496e73756666696369656e742062616c616e636520666f722072657061796d6560008201527f6e74000000000000000000000000000000000000000000000000000000000000602082015250565b6000615c05602283614cf6565b9150615c1082615ba9565b604082019050919050565b60006020820190508181036000830152615c3481615bf8565b9050919050565b7f496e73756666696369656e742072657061796d656e7420616d6f756e74000000600082015250565b6000615c71601d83614cf6565b9150615c7c82615c3b565b602082019050919050565b60006020820190508181036000830152615ca081615c64565b9050919050565b7f4c6f616e2072657175657374206e6f7420666f756e64206f7220616c7265616460008201527f7920617070726f76656400000000000000000000000000000000000000000000602082015250565b6000615d03602a83614cf6565b9150615d0e82615ca7565b604082019050919050565b60006020820190508181036000830152615d3281615cf6565b9050919050565b7f52656675676565206e6f7420666f756e64000000000000000000000000000000600082015250565b6000615d6f601183614cf6565b9150615d7a82615d39565b602082019050919050565b60006020820190508181036000830152615d9e81615d62565b9050919050565b600081549050615db4816151d9565b9050919050565b818103615dc9575050615ea1565b615dd282615da5565b67ffffffffffffffff811115615deb57615dea614ecb565b5b615df582546151d9565b615e008282856157cb565b6000601f831160018114615e2f5760008415615e1d578287015490505b615e27858261583c565b865550615e9a565b601f198416615e3d876156ac565b9650615e48866156ac565b60005b82811015615e7057848901548255600182019150600185019450602081019050615e4b565b86831015615e8d5784890154615e89601f89168261581e565b8355505b6001600288020188555050505b5050505050505b565b7f4e487b7100000000000000000000000000000000000000000000000000000000600052603160045260246000fd5b6000615edd82614636565b9150615ee883614636565b9250828202615ef681614636565b91508282048414831517615f0d57615f0c61532e565b5b509291505056fe596f7572206c6f616e2072657061796d656e742069732064756520736f6f6e2e20506c65617365206d616b6520746865207061796d656e7420746f2061766f69642066696e65732ea2646970667358221220174a340257be6a81e64beffa371b3be504ef3a54926926fadca4fe59be305c0164736f6c63430008130033",
  "linkReferences": {},
  "deployedLinkReferences": {}
}